{
  "contractName": "Patient",
  "abi": [
    {
      "constant": true,
      "inputs": [],
      "name": "PatientCounter",
      "outputs": [
        {
          "internalType": "uint256",
          "name": "",
          "type": "uint256"
        }
      ],
      "payable": false,
      "stateMutability": "view",
      "type": "function"
    },
    {
      "constant": true,
      "inputs": [],
      "name": "blockCount",
      "outputs": [
        {
          "internalType": "uint256",
          "name": "",
          "type": "uint256"
        }
      ],
      "payable": false,
      "stateMutability": "view",
      "type": "function"
    },
    {
      "constant": true,
      "inputs": [
        {
          "internalType": "address",
          "name": "",
          "type": "address"
        },
        {
          "internalType": "uint256",
          "name": "",
          "type": "uint256"
        }
      ],
      "name": "criticalParameters",
      "outputs": [
        {
          "internalType": "address",
          "name": "patientAddress",
          "type": "address"
        },
        {
          "internalType": "uint256",
          "name": "temp",
          "type": "uint256"
        },
        {
          "internalType": "uint256",
          "name": "oxygen",
          "type": "uint256"
        },
        {
          "internalType": "uint256",
          "name": "timestamp",
          "type": "uint256"
        },
        {
          "internalType": "bool",
          "name": "exists",
          "type": "bool"
        }
      ],
      "payable": false,
      "stateMutability": "view",
      "type": "function"
    },
    {
      "constant": true,
      "inputs": [
        {
          "internalType": "uint256",
          "name": "",
          "type": "uint256"
        }
      ],
      "name": "criticalPatients",
      "outputs": [
        {
          "internalType": "address",
          "name": "",
          "type": "address"
        }
      ],
      "payable": false,
      "stateMutability": "view",
      "type": "function"
    },
    {
      "constant": true,
      "inputs": [
        {
          "internalType": "string",
          "name": "",
          "type": "string"
        }
      ],
      "name": "isRegistered",
      "outputs": [
        {
          "internalType": "bool",
          "name": "",
          "type": "bool"
        }
      ],
      "payable": false,
      "stateMutability": "view",
      "type": "function"
    },
    {
      "constant": true,
      "inputs": [
        {
          "internalType": "address",
          "name": "",
          "type": "address"
        }
      ],
      "name": "patientFiles",
      "outputs": [
        {
          "internalType": "string",
          "name": "FileHash",
          "type": "string"
        },
        {
          "internalType": "string",
          "name": "FileName",
          "type": "string"
        },
        {
          "internalType": "address",
          "name": "PatientAddress",
          "type": "address"
        }
      ],
      "payable": false,
      "stateMutability": "view",
      "type": "function"
    },
    {
      "constant": true,
      "inputs": [
        {
          "internalType": "address",
          "name": "",
          "type": "address"
        },
        {
          "internalType": "uint256",
          "name": "",
          "type": "uint256"
        }
      ],
      "name": "patientHealth",
      "outputs": [
        {
          "internalType": "address",
          "name": "patientAddress",
          "type": "address"
        },
        {
          "internalType": "uint256",
          "name": "temp",
          "type": "uint256"
        },
        {
          "internalType": "uint256",
          "name": "oxygen",
          "type": "uint256"
        },
        {
          "internalType": "uint256",
          "name": "timestamp",
          "type": "uint256"
        },
        {
          "internalType": "bool",
          "name": "exists",
          "type": "bool"
        }
      ],
      "payable": false,
      "stateMutability": "view",
      "type": "function"
    },
    {
      "constant": true,
      "inputs": [
        {
          "internalType": "address",
          "name": "",
          "type": "address"
        }
      ],
      "name": "patients",
      "outputs": [
        {
          "internalType": "address",
          "name": "owner",
          "type": "address"
        },
        {
          "internalType": "string",
          "name": "patient_name",
          "type": "string"
        },
        {
          "internalType": "string",
          "name": "patient_aadhar",
          "type": "string"
        },
        {
          "internalType": "string",
          "name": "phone_number",
          "type": "string"
        },
        {
          "internalType": "bool",
          "name": "exist",
          "type": "bool"
        }
      ],
      "payable": false,
      "stateMutability": "view",
      "type": "function"
    },
    {
      "constant": true,
      "inputs": [
        {
          "internalType": "uint256",
          "name": "",
          "type": "uint256"
        }
      ],
      "name": "patientsAddress",
      "outputs": [
        {
          "internalType": "address",
          "name": "",
          "type": "address"
        }
      ],
      "payable": false,
      "stateMutability": "view",
      "type": "function"
    },
    {
      "constant": false,
      "inputs": [
        {
          "internalType": "string",
          "name": "name",
          "type": "string"
        },
        {
          "internalType": "string",
          "name": "aadhar",
          "type": "string"
        },
        {
          "internalType": "string",
          "name": "phoneN",
          "type": "string"
        }
      ],
      "name": "registerPatient",
      "outputs": [],
      "payable": false,
      "stateMutability": "nonpayable",
      "type": "function"
    },
    {
      "constant": true,
      "inputs": [],
      "name": "getPatients",
      "outputs": [
        {
          "components": [
            {
              "internalType": "address",
              "name": "owner",
              "type": "address"
            },
            {
              "internalType": "string",
              "name": "patient_name",
              "type": "string"
            },
            {
              "internalType": "string",
              "name": "patient_aadhar",
              "type": "string"
            },
            {
              "internalType": "string",
              "name": "phone_number",
              "type": "string"
            },
            {
              "internalType": "bool",
              "name": "exist",
              "type": "bool"
            }
          ],
          "internalType": "struct Patient.patient[]",
          "name": "",
          "type": "tuple[]"
        }
      ],
      "payable": false,
      "stateMutability": "view",
      "type": "function"
    },
    {
      "constant": false,
      "inputs": [
        {
          "internalType": "address",
          "name": "addr",
          "type": "address"
        }
      ],
      "name": "deletePatient",
      "outputs": [],
      "payable": false,
      "stateMutability": "nonpayable",
      "type": "function"
    },
    {
      "constant": false,
      "inputs": [
        {
          "internalType": "address",
          "name": "addr",
          "type": "address"
        },
        {
          "internalType": "uint256",
          "name": "_temp",
          "type": "uint256"
        },
        {
          "internalType": "uint256",
          "name": "_oxygen",
          "type": "uint256"
        },
        {
          "internalType": "string",
          "name": "_aadhar",
          "type": "string"
        }
      ],
      "name": "storeParameters",
      "outputs": [],
      "payable": false,
      "stateMutability": "nonpayable",
      "type": "function"
    },
    {
      "constant": true,
      "inputs": [
        {
          "internalType": "address",
          "name": "addr",
          "type": "address"
        }
      ],
      "name": "getPatientCondition",
      "outputs": [
        {
          "components": [
            {
              "internalType": "address",
              "name": "patientAddress",
              "type": "address"
            },
            {
              "internalType": "uint256",
              "name": "temp",
              "type": "uint256"
            },
            {
              "internalType": "uint256",
              "name": "oxygen",
              "type": "uint256"
            },
            {
              "internalType": "uint256",
              "name": "timestamp",
              "type": "uint256"
            },
            {
              "internalType": "bool",
              "name": "exists",
              "type": "bool"
            }
          ],
          "internalType": "struct Patient.parameters[]",
          "name": "",
          "type": "tuple[]"
        }
      ],
      "payable": false,
      "stateMutability": "view",
      "type": "function"
    },
    {
      "constant": true,
      "inputs": [],
      "name": "getCriticalPatients",
      "outputs": [
        {
          "components": [
            {
              "internalType": "address",
              "name": "owner",
              "type": "address"
            },
            {
              "internalType": "string",
              "name": "patient_name",
              "type": "string"
            },
            {
              "internalType": "string",
              "name": "patient_aadhar",
              "type": "string"
            },
            {
              "internalType": "string",
              "name": "phone_number",
              "type": "string"
            },
            {
              "internalType": "bool",
              "name": "exist",
              "type": "bool"
            }
          ],
          "internalType": "struct Patient.patient[]",
          "name": "",
          "type": "tuple[]"
        },
        {
          "components": [
            {
              "internalType": "address",
              "name": "patientAddress",
              "type": "address"
            },
            {
              "internalType": "uint256",
              "name": "temp",
              "type": "uint256"
            },
            {
              "internalType": "uint256",
              "name": "oxygen",
              "type": "uint256"
            },
            {
              "internalType": "uint256",
              "name": "timestamp",
              "type": "uint256"
            },
            {
              "internalType": "bool",
              "name": "exists",
              "type": "bool"
            }
          ],
          "internalType": "struct Patient.parameters[]",
          "name": "",
          "type": "tuple[]"
        }
      ],
      "payable": false,
      "stateMutability": "view",
      "type": "function"
    },
    {
      "constant": true,
      "inputs": [
        {
          "internalType": "address",
          "name": "addr",
          "type": "address"
        }
      ],
      "name": "isPatient",
      "outputs": [
        {
          "internalType": "bool",
          "name": "",
          "type": "bool"
        }
      ],
      "payable": false,
      "stateMutability": "view",
      "type": "function"
    },
    {
      "constant": false,
      "inputs": [
        {
          "internalType": "string",
          "name": "_FileHash",
          "type": "string"
        },
        {
          "internalType": "uint256",
          "name": "_FileSize",
          "type": "uint256"
        },
        {
          "internalType": "string",
          "name": "_FileName",
          "type": "string"
        },
        {
          "internalType": "string",
          "name": "_aadhar",
          "type": "string"
        }
      ],
      "name": "uploadFile",
      "outputs": [],
      "payable": false,
      "stateMutability": "nonpayable",
      "type": "function"
    },
    {
      "constant": true,
      "inputs": [
        {
          "internalType": "address",
          "name": "addr",
          "type": "address"
        }
      ],
      "name": "getFile",
      "outputs": [
        {
          "internalType": "string",
          "name": "",
          "type": "string"
        },
        {
          "internalType": "string",
          "name": "",
          "type": "string"
        }
      ],
      "payable": false,
      "stateMutability": "view",
      "type": "function"
    }
  ],
  "bytecode": "0x6080604052600060075560006008556000600955739b5390dfb6a50ae586942c5984bdb8bf147d82ce600a60006101000a81548173ffffffffffffffffffffffffffffffffffffffff021916908373ffffffffffffffffffffffffffffffffffffffff16021790555034801561007457600080fd5b50613159806100846000396000f3fe608060405234801561001057600080fd5b50600436106101165760003560e01c80638f9c79ed116100a2578063c719023911610071578063c719023914610313578063c822d7f014610345578063c923bd9a14610375578063e920d44f146103a5578063f4a3ba65146103c357610116565b80638f9c79ed146102775780639d0a890a146102a7578063a4901c5f146102db578063be65437a146102f757610116565b806312ad1c37116100e957806312ad1c37146101ba57806320f21708146101d8578063569adc12146101f45780638375f25a14610224578063842f009c1461025857610116565b806302513ed21461011b57806307225b4d146101375780630869cfbc146101555780630b87c1e014610189575b600080fd5b6101356004803603610130919081019061250c565b6103f3565b005b61013f610659565b60405161014c9190612ef8565b60405180910390f35b61016f600480360361016a919081019061250c565b61065f565b604051610180959493929190612c6b565b60405180910390f35b6101a3600480360361019e919081019061250c565b61088a565b6040516101b1929190612dbc565b60405180910390f35b6101c2610ae2565b6040516101cf9190612d48565b60405180910390f35b6101f260048036036101ed91908101906126c4565b610e43565b005b61020e6004803603610209919081019061276f565b610feb565b60405161021b9190612c50565b60405180910390f35b61023e60048036036102399190810190612535565b611027565b60405161024f959493929190612cd3565b60405180910390f35b6102606110a4565b60405161026e929190612d6a565b60405180910390f35b610291600480360361028c919081019061250c565b611634565b60405161029e9190612da1565b60405180910390f35b6102c160048036036102bc9190810190612535565b61168d565b6040516102d2959493929190612cd3565b60405180910390f35b6102f560048036036102f09190810190612571565b61170a565b005b610311600480360361030c919081019061262d565b611b2f565b005b61032d6004803603610328919081019061250c565b611d8f565b60405161033c93929190612df3565b60405180910390f35b61035f600480360361035a91908101906125ec565b611f09565b60405161036c9190612da1565b60405180910390f35b61038f600480360361038a919081019061276f565b611f3f565b60405161039c9190612c50565b60405180910390f35b6103ad611f7b565b6040516103ba9190612ef8565b60405180910390f35b6103dd60048036036103d8919081019061250c565b611f81565b6040516103ea9190612d26565b60405180910390f35b600a60009054906101000a900473ffffffffffffffffffffffffffffffffffffffff1673ffffffffffffffffffffffffffffffffffffffff163373ffffffffffffffffffffffffffffffffffffffff1614610483576040517f08c379a000000000000000000000000000000000000000000000000000000000815260040161047a90612e58565b60405180910390fd5b6000600560008373ffffffffffffffffffffffffffffffffffffffff1673ffffffffffffffffffffffffffffffffffffffff16815260200190815260200160002060040160006101000a81548160ff021916908315150217905550600080600090505b60095481101561056c578273ffffffffffffffffffffffffffffffffffffffff166000828154811061051457fe5b9060005260206000200160009054906101000a900473ffffffffffffffffffffffffffffffffffffffff1673ffffffffffffffffffffffffffffffffffffffff16141561055f578091505b80806001019150506104e6565b5060006001600080549050038154811061058257fe5b9060005260206000200160009054906101000a900473ffffffffffffffffffffffffffffffffffffffff16600082815481106105ba57fe5b9060005260206000200160006101000a81548173ffffffffffffffffffffffffffffffffffffffff021916908373ffffffffffffffffffffffffffffffffffffffff160217905550600080548061060d57fe5b6001900381819060005260206000200160006101000a81549073ffffffffffffffffffffffffffffffffffffffff02191690559055600960008154809291906001900391905055505050565b60075481565b60056020528060005260406000206000915090508060000160009054906101000a900473ffffffffffffffffffffffffffffffffffffffff1690806001018054600181600116156101000203166002900480601f0160208091040260200160405190810160405280929190818152602001828054600181600116156101000203166002900480156107315780601f1061070657610100808354040283529160200191610731565b820191906000526020600020905b81548152906001019060200180831161071457829003601f168201915b505050505090806002018054600181600116156101000203166002900480601f0160208091040260200160405190810160405280929190818152602001828054600181600116156101000203166002900480156107cf5780601f106107a4576101008083540402835291602001916107cf565b820191906000526020600020905b8154815290600101906020018083116107b257829003601f168201915b505050505090806003018054600181600116156101000203166002900480601f01602080910402602001604051908101604052809291908181526020018280546001816001161561010002031660029004801561086d5780601f106108425761010080835404028352916020019161086d565b820191906000526020600020905b81548152906001019060200180831161085057829003601f168201915b5050505050908060040160009054906101000a900460ff16905085565b606080600a60009054906101000a900473ffffffffffffffffffffffffffffffffffffffff1673ffffffffffffffffffffffffffffffffffffffff163373ffffffffffffffffffffffffffffffffffffffff161461091d576040517f08c379a000000000000000000000000000000000000000000000000000000000815260040161091490612e58565b60405180910390fd5b600460008473ffffffffffffffffffffffffffffffffffffffff1673ffffffffffffffffffffffffffffffffffffffff168152602001908152602001600020600001600460008573ffffffffffffffffffffffffffffffffffffffff1673ffffffffffffffffffffffffffffffffffffffff168152602001908152602001600020600101818054600181600116156101000203166002900480601f016020809104026020016040519081016040528092919081815260200182805460018160011615610100020316600290048015610a365780601f10610a0b57610100808354040283529160200191610a36565b820191906000526020600020905b815481529060010190602001808311610a1957829003601f168201915b50505050509150808054600181600116156101000203166002900480601f016020809104026020016040519081016040528092919081815260200182805460018160011615610100020316600290048015610ad25780601f10610aa757610100808354040283529160200191610ad2565b820191906000526020600020905b815481529060010190602001808311610ab557829003601f168201915b5050505050905091509150915091565b606080600080549050604051908082528060200260200182016040528015610b2457816020015b610b11612144565b815260200190600190039081610b095790505b50905060008090505b600080549050811015610e3b57600060056000808481548110610b4c57fe5b9060005260206000200160009054906101000a900473ffffffffffffffffffffffffffffffffffffffff1673ffffffffffffffffffffffffffffffffffffffff1673ffffffffffffffffffffffffffffffffffffffff1681526020019081526020016000209050806040518060a00160405290816000820160009054906101000a900473ffffffffffffffffffffffffffffffffffffffff1673ffffffffffffffffffffffffffffffffffffffff1673ffffffffffffffffffffffffffffffffffffffff168152602001600182018054600181600116156101000203166002900480601f016020809104026020016040519081016040528092919081815260200182805460018160011615610100020316600290048015610cae5780601f10610c8357610100808354040283529160200191610cae565b820191906000526020600020905b815481529060010190602001808311610c9157829003601f168201915b50505050508152602001600282018054600181600116156101000203166002900480601f016020809104026020016040519081016040528092919081815260200182805460018160011615610100020316600290048015610d505780601f10610d2557610100808354040283529160200191610d50565b820191906000526020600020905b815481529060010190602001808311610d3357829003601f168201915b50505050508152602001600382018054600181600116156101000203166002900480601f016020809104026020016040519081016040528092919081815260200182805460018160011615610100020316600290048015610df25780601f10610dc757610100808354040283529160200191610df2565b820191906000526020600020905b815481529060010190602001808311610dd557829003601f168201915b505050505081526020016004820160009054906101000a900460ff161515151581525050838381518110610e2257fe5b6020026020010181905250508080600101915050610b2d565b508091505090565b600681604051610e539190612c39565b908152602001604051809103902060009054906101000a900460ff16610eae576040517f08c379a0000000000000000000000000000000000000000000000000000000008152600401610ea590612eb8565b60405180910390fd5b60008311610ef1576040517f08c379a0000000000000000000000000000000000000000000000000000000008152600401610ee890612e78565b60405180910390fd5b60405180606001604052808581526020018381526020013373ffffffffffffffffffffffffffffffffffffffff16815250600460003373ffffffffffffffffffffffffffffffffffffffff1673ffffffffffffffffffffffffffffffffffffffff1681526020019081526020016000206000820151816000019080519060200190610f7d92919061218b565b506020820151816001019080519060200190610f9a92919061218b565b5060408201518160020160006101000a81548173ffffffffffffffffffffffffffffffffffffffff021916908373ffffffffffffffffffffffffffffffffffffffff16021790555090505050505050565b60018181548110610ff857fe5b906000526020600020016000915054906101000a900473ffffffffffffffffffffffffffffffffffffffff1681565b6002602052816000526040600020818154811061104057fe5b9060005260206000209060050201600091509150508060000160009054906101000a900473ffffffffffffffffffffffffffffffffffffffff16908060010154908060020154908060030154908060040160009054906101000a900460ff16905085565b606080600a60009054906101000a900473ffffffffffffffffffffffffffffffffffffffff1673ffffffffffffffffffffffffffffffffffffffff163373ffffffffffffffffffffffffffffffffffffffff1614611137576040517f08c379a000000000000000000000000000000000000000000000000000000000815260040161112e90612e58565b60405180910390fd5b606060018054905060405190808252806020026020018201604052801561117857816020015b611165612144565b81526020019060019003908161115d5790505b50905060606001805490506040519080825280602002602001820160405280156111bc57816020015b6111a961220b565b8152602001906001900390816111a15790505b50905060008090505b60018054905081101561162757600060056000600184815481106111e557fe5b9060005260206000200160009054906101000a900473ffffffffffffffffffffffffffffffffffffffff1673ffffffffffffffffffffffffffffffffffffffff1673ffffffffffffffffffffffffffffffffffffffff16815260200190815260200160002090506000600360006001858154811061125f57fe5b9060005260206000200160009054906101000a900473ffffffffffffffffffffffffffffffffffffffff1673ffffffffffffffffffffffffffffffffffffffff1673ffffffffffffffffffffffffffffffffffffffff16815260200190815260200160002090506000816001838054905003815481106112db57fe5b90600052602060002090600502019050826040518060a00160405290816000820160009054906101000a900473ffffffffffffffffffffffffffffffffffffffff1673ffffffffffffffffffffffffffffffffffffffff1673ffffffffffffffffffffffffffffffffffffffff168152602001600182018054600181600116156101000203166002900480601f0160208091040260200160405190810160405280929190818152602001828054600181600116156101000203166002900480156113e65780601f106113bb576101008083540402835291602001916113e6565b820191906000526020600020905b8154815290600101906020018083116113c957829003601f168201915b50505050508152602001600282018054600181600116156101000203166002900480601f0160208091040260200160405190810160405280929190818152602001828054600181600116156101000203166002900480156114885780601f1061145d57610100808354040283529160200191611488565b820191906000526020600020905b81548152906001019060200180831161146b57829003601f168201915b50505050508152602001600382018054600181600116156101000203166002900480601f01602080910402602001604051908101604052809291908181526020018280546001816001161561010002031660029004801561152a5780601f106114ff5761010080835404028352916020019161152a565b820191906000526020600020905b81548152906001019060200180831161150d57829003601f168201915b505050505081526020016004820160009054906101000a900460ff16151515158152505086858151811061155a57fe5b6020026020010181905250806040518060a00160405290816000820160009054906101000a900473ffffffffffffffffffffffffffffffffffffffff1673ffffffffffffffffffffffffffffffffffffffff1673ffffffffffffffffffffffffffffffffffffffff1681526020016001820154815260200160028201548152602001600382015481526020016004820160009054906101000a900460ff16151515158152505085858151811061160c57fe5b602002602001018190525050505080806001019150506111c5565b5081819350935050509091565b6000600560008373ffffffffffffffffffffffffffffffffffffffff1673ffffffffffffffffffffffffffffffffffffffff16815260200190815260200160002060040160009054906101000a900460ff169050919050565b600360205281600052604060002081815481106116a657fe5b9060005260206000209060050201600091509150508060000160009054906101000a900473ffffffffffffffffffffffffffffffffffffffff16908060010154908060020154908060030154908060040160009054906101000a900460ff16905085565b60068160405161171a9190612c39565b908152602001604051809103902060009054906101000a900460ff16611775576040517f08c379a000000000000000000000000000000000000000000000000000000000815260040161176c90612e98565b60405180910390fd5b60011515600560008673ffffffffffffffffffffffffffffffffffffffff1673ffffffffffffffffffffffffffffffffffffffff16815260200190815260200160002060040160009054906101000a900460ff1615151461180b576040517f08c379a000000000000000000000000000000000000000000000000000000000815260040161180290612ed8565b60405180910390fd5b611813612252565b6040518060a001604052808673ffffffffffffffffffffffffffffffffffffffff1681526020018581526020018481526020014281526020016001151581525090506000600260008773ffffffffffffffffffffffffffffffffffffffff1673ffffffffffffffffffffffffffffffffffffffff168152602001908152602001600020905080829080600181540180825580915050906001820390600052602060002090600502016000909192909190915060008201518160000160006101000a81548173ffffffffffffffffffffffffffffffffffffffff021916908373ffffffffffffffffffffffffffffffffffffffff16021790555060208201518160010155604082015181600201556060820151816003015560808201518160040160006101000a81548160ff02191690831515021790555050505080600260008873ffffffffffffffffffffffffffffffffffffffff1673ffffffffffffffffffffffffffffffffffffffff16815260200190815260200160002090805461199b929190612299565b50600060085490506000809050606487101580156119ba5750605c8611155b15611b255760008090505b82811015611a4e578873ffffffffffffffffffffffffffffffffffffffff16600182815481106119f157fe5b9060005260206000200160009054906101000a900473ffffffffffffffffffffffffffffffffffffffff1673ffffffffffffffffffffffffffffffffffffffff161415611a415760019150611a4e565b80806001019150506119c5565b50600015158115151415611b245782600360008a73ffffffffffffffffffffffffffffffffffffffff1673ffffffffffffffffffffffffffffffffffffffff168152602001908152602001600020908054611aaa929190612299565b5060018890806001815401808255809150509060018203906000526020600020016000909192909190916101000a81548173ffffffffffffffffffffffffffffffffffffffff021916908373ffffffffffffffffffffffffffffffffffffffff160217905550506008600081548092919060010191905055505b5b5050505050505050565b600682604051611b3f9190612c39565b908152602001604051809103902060009054906101000a900460ff1615611b9b576040517f08c379a0000000000000000000000000000000000000000000000000000000008152600401611b9290612e38565b60405180910390fd5b6001600683604051611bad9190612c39565b908152602001604051809103902060006101000a81548160ff02191690831515021790555060003390806001815401808255809150509060018203906000526020600020016000909192909190916101000a81548173ffffffffffffffffffffffffffffffffffffffff021916908373ffffffffffffffffffffffffffffffffffffffff160217905550506040518060a001604052803373ffffffffffffffffffffffffffffffffffffffff16815260200184815260200183815260200182815260200160011515815250600560003373ffffffffffffffffffffffffffffffffffffffff1673ffffffffffffffffffffffffffffffffffffffff16815260200190815260200160002060008201518160000160006101000a81548173ffffffffffffffffffffffffffffffffffffffff021916908373ffffffffffffffffffffffffffffffffffffffff1602179055506020820151816001019080519060200190611d1a92919061218b565b506040820151816002019080519060200190611d3792919061218b565b506060820151816003019080519060200190611d5492919061218b565b5060808201518160040160006101000a81548160ff021916908315150217905550905050600960008154809291906001019190505550505050565b6004602052806000526040600020600091509050806000018054600181600116156101000203166002900480601f016020809104026020016040519081016040528092919081815260200182805460018160011615610100020316600290048015611e3b5780601f10611e1057610100808354040283529160200191611e3b565b820191906000526020600020905b815481529060010190602001808311611e1e57829003601f168201915b505050505090806001018054600181600116156101000203166002900480601f016020809104026020016040519081016040528092919081815260200182805460018160011615610100020316600290048015611ed95780601f10611eae57610100808354040283529160200191611ed9565b820191906000526020600020905b815481529060010190602001808311611ebc57829003601f168201915b5050505050908060020160009054906101000a900473ffffffffffffffffffffffffffffffffffffffff16905083565b6006818051602081018201805184825260208301602085012081835280955050505050506000915054906101000a900460ff1681565b60008181548110611f4c57fe5b906000526020600020016000915054906101000a900473ffffffffffffffffffffffffffffffffffffffff1681565b60095481565b6060600a60009054906101000a900473ffffffffffffffffffffffffffffffffffffffff1673ffffffffffffffffffffffffffffffffffffffff163373ffffffffffffffffffffffffffffffffffffffff1614612013576040517f08c379a000000000000000000000000000000000000000000000000000000000815260040161200a90612e58565b60405180910390fd5b6000600260008473ffffffffffffffffffffffffffffffffffffffff1673ffffffffffffffffffffffffffffffffffffffff168152602001908152602001600020905080805480602002602001604051908101604052809291908181526020016000905b8282101561213857838290600052602060002090600502016040518060a00160405290816000820160009054906101000a900473ffffffffffffffffffffffffffffffffffffffff1673ffffffffffffffffffffffffffffffffffffffff1673ffffffffffffffffffffffffffffffffffffffff1681526020016001820154815260200160028201548152602001600382015481526020016004820160009054906101000a900460ff16151515158152505081526020019060010190612077565b50505050915050919050565b6040518060a00160405280600073ffffffffffffffffffffffffffffffffffffffff1681526020016060815260200160608152602001606081526020016000151581525090565b828054600181600116156101000203166002900490600052602060002090601f016020900481019282601f106121cc57805160ff19168380011785556121fa565b828001600101855582156121fa579182015b828111156121f95782518255916020019190600101906121de565b5b50905061220791906123a3565b5090565b6040518060a00160405280600073ffffffffffffffffffffffffffffffffffffffff1681526020016000815260200160008152602001600081526020016000151581525090565b6040518060a00160405280600073ffffffffffffffffffffffffffffffffffffffff1681526020016000815260200160008152602001600081526020016000151581525090565b8280548282559060005260206000209060050281019282156123925760005260206000209160050282015b828111156123915782826000820160009054906101000a900473ffffffffffffffffffffffffffffffffffffffff168160000160006101000a81548173ffffffffffffffffffffffffffffffffffffffff021916908373ffffffffffffffffffffffffffffffffffffffff1602179055506001820154816001015560028201548160020155600382015481600301556004820160009054906101000a900460ff168160040160006101000a81548160ff0219169083151502179055505050916005019190600501906122c4565b5b50905061239f91906123c8565b5090565b6123c591905b808211156123c15760008160009055506001016123a9565b5090565b90565b61243791905b8082111561243357600080820160006101000a81549073ffffffffffffffffffffffffffffffffffffffff02191690556001820160009055600282016000905560038201600090556004820160006101000a81549060ff0219169055506005016123ce565b5090565b90565b600081359050612449816130e8565b92915050565b600082601f83011261246057600080fd5b813561247361246e82612f40565b612f13565b9150808252602083016020830185838301111561248f57600080fd5b61249a838284613095565b50505092915050565b600082601f8301126124b457600080fd5b81356124c76124c282612f6c565b612f13565b915080825260208301602083018583830111156124e357600080fd5b6124ee838284613095565b50505092915050565b600081359050612506816130ff565b92915050565b60006020828403121561251e57600080fd5b600061252c8482850161243a565b91505092915050565b6000806040838503121561254857600080fd5b60006125568582860161243a565b9250506020612567858286016124f7565b9150509250929050565b6000806000806080858703121561258757600080fd5b60006125958782880161243a565b94505060206125a6878288016124f7565b93505060406125b7878288016124f7565b925050606085013567ffffffffffffffff8111156125d457600080fd5b6125e0878288016124a3565b91505092959194509250565b6000602082840312156125fe57600080fd5b600082013567ffffffffffffffff81111561261857600080fd5b6126248482850161244f565b91505092915050565b60008060006060848603121561264257600080fd5b600084013567ffffffffffffffff81111561265c57600080fd5b612668868287016124a3565b935050602084013567ffffffffffffffff81111561268557600080fd5b612691868287016124a3565b925050604084013567ffffffffffffffff8111156126ae57600080fd5b6126ba868287016124a3565b9150509250925092565b600080600080608085870312156126da57600080fd5b600085013567ffffffffffffffff8111156126f457600080fd5b612700878288016124a3565b9450506020612711878288016124f7565b935050604085013567ffffffffffffffff81111561272e57600080fd5b61273a878288016124a3565b925050606085013567ffffffffffffffff81111561275757600080fd5b612763878288016124a3565b91505092959194509250565b60006020828403121561278157600080fd5b600061278f848285016124f7565b91505092915050565b60006127a48383612b2f565b60a08301905092915050565b60006127bc8383612b97565b905092915050565b6127cd8161304d565b82525050565b6127dc8161304d565b82525050565b60006127ed82612fb8565b6127f78185612ffe565b935061280283612f98565b8060005b8381101561283357815161281a8882612798565b975061282583612fe4565b925050600181019050612806565b5085935050505092915050565b600061284b82612fc3565b612855818561300f565b93508360208202850161286785612fa8565b8060005b858110156128a3578484038952815161288485826127b0565b945061288f83612ff1565b925060208a0199505060018101905061286b565b50829750879550505050505092915050565b6128be8161305f565b82525050565b6128cd8161305f565b82525050565b60006128de82612fd9565b6128e88185613031565b93506128f88185602086016130a4565b612901816130d7565b840191505092915050565b600061291782612fd9565b6129218185613042565b93506129318185602086016130a4565b80840191505092915050565b600061294882612fce565b6129528185613020565b93506129628185602086016130a4565b61296b816130d7565b840191505092915050565b600061298182612fce565b61298b8185613031565b935061299b8185602086016130a4565b6129a4816130d7565b840191505092915050565b60006129bc601f83613031565b91507f54686973207573657220697320616c72656164792072656769737465726564006000830152602082019050919050565b60006129fc600d83613031565b91507f4163636573732044656e696564000000000000000000000000000000000000006000830152602082019050919050565b6000612a3c601183613031565b91507f4e6f2046696c65206465746563746564210000000000000000000000000000006000830152602082019050919050565b6000612a7c601683613031565b91507f4e6f7420726567697374657265642050617469656e74000000000000000000006000830152602082019050919050565b6000612abc601a83613031565b91507f4e6f742072656769737465726420617320612070617469656e740000000000006000830152602082019050919050565b6000612afc601683613031565b91507f50617469656e7420646f6573206e6f74206578697374000000000000000000006000830152602082019050919050565b60a082016000820151612b4560008501826127c4565b506020820151612b586020850182612c1b565b506040820151612b6b6040850182612c1b565b506060820151612b7e6060850182612c1b565b506080820151612b9160808501826128b5565b50505050565b600060a083016000830151612baf60008601826127c4565b5060208301518482036020860152612bc7828261293d565b91505060408301518482036040860152612be1828261293d565b91505060608301518482036060860152612bfb828261293d565b9150506080830151612c1060808601826128b5565b508091505092915050565b612c248161308b565b82525050565b612c338161308b565b82525050565b6000612c45828461290c565b915081905092915050565b6000602082019050612c6560008301846127d3565b92915050565b600060a082019050612c8060008301886127d3565b8181036020830152612c928187612976565b90508181036040830152612ca68186612976565b90508181036060830152612cba8185612976565b9050612cc960808301846128c4565b9695505050505050565b600060a082019050612ce860008301886127d3565b612cf56020830187612c2a565b612d026040830186612c2a565b612d0f6060830185612c2a565b612d1c60808301846128c4565b9695505050505050565b60006020820190508181036000830152612d4081846127e2565b905092915050565b60006020820190508181036000830152612d628184612840565b905092915050565b60006040820190508181036000830152612d848185612840565b90508181036020830152612d9881846127e2565b90509392505050565b6000602082019050612db660008301846128c4565b92915050565b60006040820190508181036000830152612dd681856128d3565b90508181036020830152612dea81846128d3565b90509392505050565b60006060820190508181036000830152612e0d8186612976565b90508181036020830152612e218185612976565b9050612e3060408301846127d3565b949350505050565b60006020820190508181036000830152612e51816129af565b9050919050565b60006020820190508181036000830152612e71816129ef565b9050919050565b60006020820190508181036000830152612e9181612a2f565b9050919050565b60006020820190508181036000830152612eb181612a6f565b9050919050565b60006020820190508181036000830152612ed181612aaf565b9050919050565b60006020820190508181036000830152612ef181612aef565b9050919050565b6000602082019050612f0d6000830184612c2a565b92915050565b6000604051905081810181811067ffffffffffffffff82111715612f3657600080fd5b8060405250919050565b600067ffffffffffffffff821115612f5757600080fd5b601f19601f8301169050602081019050919050565b600067ffffffffffffffff821115612f8357600080fd5b601f19601f8301169050602081019050919050565b6000819050602082019050919050565b6000819050602082019050919050565b600081519050919050565b600081519050919050565b600081519050919050565b600081519050919050565b6000602082019050919050565b6000602082019050919050565b600082825260208201905092915050565b600082825260208201905092915050565b600082825260208201905092915050565b600082825260208201905092915050565b600081905092915050565b60006130588261306b565b9050919050565b60008115159050919050565b600073ffffffffffffffffffffffffffffffffffffffff82169050919050565b6000819050919050565b82818337600083830152505050565b60005b838110156130c25780820151818401526020810190506130a7565b838111156130d1576000848401525b50505050565b6000601f19601f8301169050919050565b6130f18161304d565b81146130fc57600080fd5b50565b6131088161308b565b811461311357600080fd5b5056fea365627a7a723158209a725a2fa523fd276833b7fc2e023a76a6483a170d264f041247d1525bb12b996c6578706572696d656e74616cf564736f6c63430005100040",
  "source": "// SPDX-License-Identifier: MIT\npragma solidity >=0.4.21 <8.10.0;\npragma experimental ABIEncoderV2;\n\ncontract Patient {\n\n  struct patient {\n    address owner;\n    string patient_name;\n    string patient_aadhar;\n    string phone_number;\n    bool exist;\n  }\n\n  struct file{\n      string FileHash;\n      string FileName;\n      address PatientAddress;\n  }\n\n  struct parameters{\n    address patientAddress;\n    uint temp;\n    uint oxygen;\n    uint256 timestamp;\n    bool exists;\n  }\n\n  address[] public patientsAddress;\n  address[] public criticalPatients;\n  mapping(address => parameters[]) public patientHealth;\n  mapping(address => parameters[]) public criticalParameters;\n  mapping(address => file) public patientFiles;\n  mapping(address => patient) public patients;\n  mapping(string => bool) public isRegistered;\n  uint public blockCount = 0;\n  uint critical = 0;\n  uint public PatientCounter = 0;\n  address admin = 0x9b5390DFB6A50AE586942c5984BDB8Bf147d82cE; \n\n  modifier isAdmin(){\n    require(msg.sender == admin, \"Access Denied\");\n    _;\n  }\n\n  function registerPatient(string memory name, string memory aadhar, string memory phoneN) public {\n    require(!isRegistered[aadhar], 'This user is already registered');\n    isRegistered[aadhar] = true; //mark patient as registered\n    patientsAddress.push(msg.sender);\n    patients[msg.sender] = patient(msg.sender,name,aadhar,phoneN,true);\n    PatientCounter++;\n  }\n\n  function getPatients() public view returns (patient [] memory) {\n    patient [] memory Lists = new patient[] (patientsAddress.length);\n    for(uint i = 0; i < patientsAddress.length; i++){\n      // if(patients[patientsAddress[i]].exist == true){\n        patient storage List = patients[patientsAddress[i]];\n        Lists[i] = List;\n      //}\n    }\n    return Lists;\n  }\n\n  function deletePatient(address addr) public isAdmin {\n    patients[addr].exist = false;\n    uint index;\n    for(uint i = 0; i < PatientCounter; i++){\n      if(patientsAddress[i] == addr){\n        index = i;\n      }\n    }\n    patientsAddress[index] = patientsAddress[patientsAddress.length - 1];\n    patientsAddress.pop();\n    PatientCounter--;\n  }\n\n  function storeParameters(address addr, uint _temp, uint _oxygen, string memory _aadhar) public {\n\n    require(isRegistered[_aadhar], 'Not registered Patient');\n    require(patients[addr].exist == true, 'Patient does not exist');\n\n    parameters memory param = parameters(addr,_temp,_oxygen, block.timestamp, true);\n    parameters[] storage params = patientHealth[addr];  \n    params.push(param);\n    patientHealth[addr] = params;\n    uint tempCritical = critical;\n    bool found = false;\n\n    if(_temp >= 100 && _oxygen <= 92){\n      for(uint i = 0; i < tempCritical; i++){\n        if(criticalPatients[i] == addr){\n          found = true;\n          break;\n        }\n      }\n      if(found == false){\n        criticalParameters[addr] = params;\n        criticalPatients.push(addr);\n        critical++;\n      }\n    }\n\n  }\n\n\n  function getPatientCondition(address addr) public isAdmin view returns(parameters [] memory){\n    parameters [] storage params = patientHealth[addr];\n    return params;\n  }\n\n  function getCriticalPatients() public isAdmin view returns(patient [] memory, parameters [] memory){\n    patient[] memory Lists = new patient[] (criticalPatients.length);\n    parameters[] memory params = new parameters[] (criticalPatients.length);\n\n    for(uint i = 0; i < criticalPatients.length; i++){\n      patient storage list = patients[criticalPatients[i]];\n      parameters[] storage tempParams = criticalParameters[criticalPatients[i]];\n      parameters storage param = tempParams[tempParams.length - 1];\n      //parameters storage param = criticalParameters[criticalPatients[i]];\n      Lists[i] = list;\n      params[i] = param;\n    }  \n    \n    return (Lists, params);\n  }\n\n  function isPatient(address addr) public view returns(bool) {\n      return patients[address(addr)].exist;\n  }\n\n  function uploadFile(string memory _FileHash, uint _FileSize, string memory _FileName, string memory _aadhar) public {\n    require(isRegistered[_aadhar], \"Not registerd as a patient\");\n    require(_FileSize > 0, \"No File detected!\");\n    patientFiles[msg.sender] = file(_FileHash, _FileName, msg.sender);\n  }\n\n  function getFile(address addr) public isAdmin view returns (string memory, string memory){\n    return(patientFiles[addr].FileHash, patientFiles[addr].FileName);\n  }\n  \n}\n",
  "sourcePath": "C:\\Users\\user\\Desktop\\major project\\code\\contracts\\Patient.sol",
  "compiler": {
    "name": "solc",
    "version": "0.5.16+commit.9c3226ce.Emscripten.clang"
  },
  "schemaVersion": "3.4.3",
  "updatedAt": "2022-04-30T13:18:06.720Z",
  "networkType": "ethereum",
  "devdoc": {
    "methods": {}
  },
  "userdoc": {
    "methods": {}
  }
}